:020000040800F2
:1000000000000220D1330008D1320008D7320008A6
:10001000DD320008E3320008E93200080000000089
:10002000000000000000000000000000A1A3000884
:10003000EF32000800000000F1A50008FD320008C2
:10004000213400082134000821340008213400083C
:10005000213400082134000821340008213400082C
:10006000213400082134000821340008213400081C
:10007000213400082134000821340008213400080C
:1000800021340008213400082134000821340008FC
:1000900021340008213400082134000821340008EC
:1000A00021340008213400082134000821340008DC
:1000B00021340008213400082134000821340008CC
:1000C00021340008213400082134000821340008BC
:1000D00021340008213400082134000819330008B5
:1000E000213400082134000821340008213400089C
:1000F000213400082134000821340008213400088C
:1001000021340008213400082D3300082134000870
:10011000213400082134000821340008213400086B
:10012000213400082134000821340008213400085B
:10013000213400082134000821340008213400084B
:10014000213400082134000821340008213400083B
:10015000213400082134000821340008213400082B
:10016000213400082134000821340008213400081B
:100170002134000821340008213400080000000068
:080180002134000821340008BD
:1001900010B5054C237833B9044B13B10448AFF3C1
:1001A00000800123237010BD7800002000000000B3
:1001B00064BA000808B5034B1BB103490348AFF309
:1001C000008008BD000000007C00002064BA000828
:1001D00001F0FF01102A2BDB10F0070F08D010F8F8
:1001E000013B013A8B422DD010F0070F42B3F6D1FC
:1001F000F0B441EA012141EA014122F007047FF015
:1002000000070023F0E80256083C85EA010586EA6B
:10021000010685FA47F5A3FA87F586FA47F6A5FAA7
:1002200087F68EB9EED1F0BC01F0FF0102F00702B3
:1002300032B110F8013B013A83EA010313B1F8D15E
:100240000020704701387047002D06BF354603383F
:10025000073815F0010F07D1013015F4807F02BF78
:10026000013015F4C03F0130F0BC0138704700BFC9
:1002700081F0004102E000BF83F0004330B54FEA57
:1002800041044FEA430594EA050F08BF90EA020FC4
:100290001FBF54EA000C55EA020C7FEA645C7FEA57
:1002A000655C00F0E2804FEA5454D4EB5555B8BF7A
:1002B0006D420CDD2C4480EA020281EA030382EAEB
:1002C000000083EA010180EA020281EA0303362D7D
:1002D00088BF30BD11F0004F4FEA01314FF4801C50
:1002E0004CEA113102D0404261EB410113F0004F62
:1002F0004FEA03334CEA133302D0524263EB430319
:1003000094EA050F00F0A780A4F10104D5F1200EB6
:100310000DDB02FA0EFC22FA05F2801841F1000111
:1003200003FA0EF2801843FA05F359410EE0A5F1E5
:1003300020050EF1200E012A03FA0EFC28BF4CF016
:10034000020C43FA05F3C01851EBE37101F00045CC
:1003500007D54FF0000EDCF1000C7EEB00006EEBD9
:100360000101B1F5801F1BD3B1F5001F0CD3490863
:100370005FEA30004FEA3C0C04F101044FEA4452BA
:1003800012F5800F80F09A80BCF1004F08BF5FEA41
:10039000500C50F1000041EB045141EA050130BD21
:1003A0005FEA4C0C404141EB0101013C28BFB1F533
:1003B000801FE9D291F0000F04BF01460020B1FA7E
:1003C00081F308BF2033A3F10B03B3F120020CDA51
:1003D0000C3208DD02F1140CC2F10C0201FA0CF02F
:1003E00021FA02F10CE002F11402D8BFC2F1200C94
:1003F00001FA02F120FA0CFCDCBF41EA0C0190404A
:10040000E41AA2BF01EB0451294330BD6FEA040492
:100410001F3C1CDA0C340EDC04F11404C4F120027D
:1004200020FA04F001FA02F340EA030021FA04F38F
:1004300045EA030130BDC4F10C04C4F1200220FAE6
:1004400002F001FA04F340EA0300294630BD21FA24
:1004500004F0294630BD94F0000F83F4801306BFEA
:1004600081F480110134013D4EE77FEA645C18BFDE
:100470007FEA655C29D094EA050F08BF90EA020F75
:1004800005D054EA000C04BF1946104630BD91EA6D
:10049000030F1EBF0021002030BD5FEA545C05D170
:1004A0004000494128BF41F0004130BD14F58004AF
:1004B0003CBF01F5801130BD01F0004545F0FE4123
:1004C00041F470014FF0000030BD7FEA645C1ABF58
:1004D000194610467FEA655C1CBF0B46024650EA8F
:1004E000013406BF52EA033591EA030F41F40021BB
:1004F00030BD00BF90F0000F04BF0021704730B541
:100500004FF4806404F132044FF000054FF0000115
:1005100050E700BF90F0000F04BF0021704730B5D6
:100520004FF4806404F1320410F0004548BF4042AB
:100530004FF000013EE700BF42004FEAE2014FEA00
:1005400031014FEA02701FBF12F07F4393F07F4FDB
:1005500081F06051704732F07F4208BF704793F0DE
:100560007F4F04BF41F40021704730B54FF46074F1
:1005700001F0004521F000411CE700BF50EA0102F4
:1005800008BF704730B54FF000050AE050EA01029D
:1005900008BF704730B511F0004502D5404261EB0D
:1005A00041014FF4806404F132045FEA915C3FF44E
:1005B000D8AE4FF003025FEADC0C18BF03325FEAEB
:1005C000DC0C18BF033202EBDC02C2F1200300FA9C
:1005D00003FC20FA02F001FA03FE40EA0E0021FAC1
:1005E00002F11444BDE600BF70B54FF0FF0C4CF4AF
:1005F000E06C1CEA11541DBF1CEA135594EA0C0F61
:1006000095EA0C0F00F0DEF82C4481EA030621EA9B
:100610004C5123EA4C5350EA013518BF52EA0335D6
:1006200041F4801143F4801338D0A0FB02CE4FF088
:100630000005E1FB02E506F00042E0FB03E54FF0B8
:100640000006E1FB03569CF0000F18BF4EF0010EB0
:10065000A4F1FF04B6F5007F64F5407404D25FEAAC
:100660004E0E6D4146EB060642EAC62141EA55515F
:100670004FEAC52040EA5E504FEACE2EB4F1FD0CA1
:1006800088BFBCF5E06F1ED8BEF1004F08BF5FEA1F
:10069000500E50F1000041EB045170BD06F00046D1
:1006A00046EA010140EA020081EA0301B4EB5C047E
:1006B000C2BFD4EB0C0541EA045170BD41F4801176
:1006C0004FF0000E013C00F3AB8014F1360FDEBF9B
:1006D000002001F0004170BDC4F10004203C35DA77
:1006E0000C341BDC04F11404C4F1200500FA05F3FA
:1006F00020FA04F001FA05F240EA020001F000429B
:1007000021F0004110EBD37021FA04F642EB060110
:100710005EEA430E08BF20EAD37070BDC4F10C043A
:10072000C4F1200500FA04F320FA05F001FA04F2FE
:1007300040EA020001F0004110EBD37041F10001EA
:100740005EEA430E08BF20EAD37070BDC4F12005F5
:1007500000FA05F24EEA020E20FA04F301FA05F25D
:1007600043EA020321FA04F001F0004121FA04F205
:1007700020EA020000EBD3705EEA430E08BF20EAD5
:10078000D37070BD94F0000F0FD101F0004640000F
:1007900041EB010111F4801F08BF013CF7D041EA91
:1007A000060195F0000F18BF704703F00046520095
:1007B00043EB030313F4801F08BF013DF7D043EA66
:1007C0000603704794EA0C0F0CEA135518BF95EA1C
:1007D0000C0F0CD050EA410618BF52EA4306D1D1A3
:1007E00081EA030101F000414FF0000070BD50EAC2
:1007F000410606BF1046194652EA430619D094EA4C
:100800000C0F02D150EA013613D195EA0C0F05D135
:1008100052EA03361CBF104619460AD181EA030189
:1008200001F0004141F0FE4141F470014FF0000041
:1008300070BD41F0FE4141F4780170BD70B54FF0DC
:10084000FF0C4CF4E06C1CEA11541DBF1CEA13555C
:1008500094EA0C0F95EA0C0F00F0A7F8A4EB05043E
:1008600081EA030E52EA03354FEA013100F0888035
:100870004FEA03334FF0805545EA131343EA1263FE
:100880004FEA022245EA111545EA10654FEA0026B3
:100890000EF000419D4208BF964244F1FD0404F56C
:1008A000407402D25B084FEA3202B61A65EB0305C8
:1008B0005B084FEA32024FF480104FF4002CB6EB85
:1008C000020E75EB030E22BFB61A754640EA0C0005
:1008D0005B084FEA3202B6EB020E75EB030E22BF45
:1008E000B61A754640EA5C005B084FEA3202B6EB86
:1008F000020E75EB030E22BFB61A754640EA9C0045
:100900005B084FEA3202B6EB020E75EB030E22BF14
:10091000B61A754640EADC0055EA060E18D04FEAD2
:10092000051545EA16754FEA06164FEAC30343EA72
:1009300052734FEAC2025FEA1C1CC0D111F4801F3F
:100940000BD141EA00014FF000004FF0004CB6E738
:1009500011F4801F04BF01430020B4F1FD0C88BFD7
:10096000BCF5E06F3FF6AFAEB5EB030C04BFB6EBE2
:10097000020C5FEA500C50F1000041EB045170BDD5
:100980000EF0004E4EEA113114EB5C04C2BFD4EB02
:100990000C0541EA045170BD41F480114FF0000E86
:1009A000013C90E645EA060E8DE60CEA135594EA02
:1009B0000C0F08BF95EA0C0F3FF43BAF94EA0C0F05
:1009C0000AD150EA01347FF434AF95EA0C0F7FF47A
:1009D00025AF104619462CE795EA0C0F06D152EACE
:1009E00003353FF4FDAE1046194622E750EA4106B2
:1009F00018BF52EA43067FF4C5AE50EA41047FF4C3
:100A00000DAF52EA43057FF4EBAE12E74FF0FF3C27
:100A100006E000BF4FF0010C02E000BF4FF0010CF8
:100A20004DF804CD4FEA410C7FEA6C5C4FEA430C71
:100A300018BF7FEA6C5C1BD001B050EA410C0CBFC0
:100A400052EA430C91EA030F02BF90EA020F002022
:100A5000704710F1000F91EA030F58BF994208BF89
:100A600090422CBFD8176FEAE37040F00100704746
:100A70004FEA410C7FEA6C5C02D150EA013C07D19D
:100A80004FEA430C7FEA6C5CD6D152EA033CD3D0E8
:100A90005DF8040B704700BF8446104662468C46E2
:100AA0001946634600E000BF01B5FFF7B7FF002815
:100AB00048BF10F1000F01BD4DF808EDFFF7F4FF3E
:100AC0000CBF012000205DF808FB00BF4DF808EDC9
:100AD000FFF7EAFF34BF012000205DF808FB00BFEC
:100AE0004DF808EDFFF7E0FF94BF012000205DF80E
:100AF00008FB00BF4DF808EDFFF7CEFF94BF0120C3
:100B000000205DF808FB00BF4DF808EDFFF7C4FFBB
:100B100034BF012000205DF808FB00BF4FEA41020E
:100B200012F5001215D211D56FF47873B3EB62523F
:100B300012D94FEAC12343F0004343EA505311F066
:100B4000004F23FA02F018BF404270474FF00000F8
:100B5000704750EA013005D111F0004008BF6FF036
:100B6000004070474FF00000704700BF4A0011D2AC
:100B700012F5001211D20DD56FF47873B3EB6252F7
:100B80000ED44FEAC12343F0004343EA505323FA03
:100B900002F070474FF00000704750EA013002D178
:100BA0004FF0FF3070474FF00000704753B94AB91B
:100BB000002908BF00281CBF4FF0FF314FF0FF3065
:100BC00000F070B9ADF1080C6DE904CE00F006F844
:100BD000DDF804E0DDE9022304B070472DE9F047B9
:100BE000089E0D4604460F46002B4AD18A42944681
:100BF00065D9B2FA82F343B102FA03FCC3F12002D1
:100C00009F4020FA02F217439C404FEA1C4E1FFA05
:100C10008CF5B7FBFEF1220C0EFB117742EA07427E
:100C200001FB05F090420AD91CEB020201F1FF37EB
:100C300080F01C81904240F2198102396244121AFC
:100C4000A4B2B2FBFEF00EFB102244EA024400FB09
:100C500005F5A5420AD91CEB040400F1FF3280F02F
:100C60000781A54240F204816444023840EA014011
:100C7000641B00211EB1DC400023C6E90043BDE82F
:100C8000F0878B4208D9002E00F0ED800021C6E9E4
:100C900000050846BDE8F087B3FA83F1002949D181
:100CA000AB4202D3824200F2F880841A65EB030261
:100CB00001201746002EE2D0C6E90047DFE702B95F
:100CC000FFDEB2FA82F3002B40F090808A1A4FEADE
:100CD0001C471FFA8CFE0121B2FBF7F507FB15201C
:100CE000220C42EA00420EFB05F0904208D91CEBB0
:100CF000020205F1FF3802D2904200F2CB80454655
:100D0000121AA4B2B2FBF7F007FB102244EA024425
:100D10000EFB00FEA64508D91CEB040400F1FF32CF
:100D200002D2A64500F2BB801046A4EB0E0440EAB6
:100D300005409FE7C1F120078B4022FA07FC4CEAEF
:100D4000030C05FA01F420FA07F3FD404FEA1C49B1
:100D50002343B5FBF9F81FFA8CFE09FB18551C0C50
:100D600044EA054408FB0EF5A54202FA01F200FA36
:100D700001F00BD91CEB040408F1FF3A80F08880E5
:100D8000A54240F28580A8F102086444641B9DB22C
:100D9000B4FBF9F309FB134445EA044403FB0EFEDC
:100DA000A64508D91CEB040403F1FF356CD2A64517
:100DB0006AD9023B644443EA0843A3FB0295A4EBCF
:100DC0000E04AC42C846AE4656D353D056B1B0EB33
:100DD000080264EB0E0404FA07F7CA40CC4017433C
:100DE000C6E9007418460021BDE8F087C3F1200170
:100DF00002FA03FC20FA01F225FA01F19D402A4390
:100E00004FEA1C471FFA8CFEB1FBF7F007FB1015E9
:100E1000110C41EA054100FB0EF58D4204FA03F482
:100E200008D91CEB010100F1FF382FD28D422DD9DA
:100E300002386144491B92B2B1FBF7F507FB15116B
:100E400042EA014205FB0EF1914208D91CEB020275
:100E500005F1FF3816D2914214D9023D6244521A6C
:100E600045EA004138E73146304608E73946E6E6CC
:100E70001046FBE64845A9D2B9EB020865EB0C0E1B
:100E8000013BA3E74546EAE72B4694E74046D1E716
:100E9000D0467BE7023D624432E708460AE76444F5
:100EA000023842E7704700BF80B483B000AF03460A
:100EB000FB80094B1B6800225A6200BF064B1B686F
:100EC0005A6AFB889A42F9D300BF00BF0C37BD466F
:100ED0005DF8047B704700BFC001002080B500AF03
:100EE00001224FF480510B4802F072FE0A20FFF7F6
:100EF000DBFF00224FF48051064802F069FE064BEA
:100F00001B68DA68044B1B6842F00402DA6000BF19
:100F100080BD00BF00080240C001002080B500AFC6
:100F200002F080FA00F06EF800F066FB00F090FA34
:100F300000F092F900F0E4F900F034FB00F0EEF874
:100F400000F0BEF800F030FA0AF04CF809F010FE9C
:100F50000A221A491A4806F050F80421194804F0E8
:100F6000A5FC06F0F9FF184A0021184807F03EF8E2
:100F70000346174A1360174A0021174807F036F84E
:100F80000346164A1360164A0021164807F02EF849
:100F90000346154A1360154A0021154807F026F844
:100FA0000346144A1360144A0021144807F01EF83F
:100FB0000346134A136006F0F3FFFEE7AC0200207D
:100FC00050020020C00100200CBB0008CD18000812
:100FD0009802002030BB0008191900089C0200206C
:100FE00054BB000871190008A002002078BB00085B
:100FF000552C0008A40200209CBB0008612D0008AD
:10100000A802002080B594B000AF07F12003302281
:10101000002118460AF04EF907F10C0300221A606D
:101020005A609A60DA601A610023BB60224B1B6C25
:10103000214A43F0805313641F4B1B6C03F0805311
:10104000BB60BB6800237B601C4B1B681B4A43F4DE
:1010500080431360194B1B6803F480437B607B68FB
:1010600002233B620123FB6210233B630023BB632B
:1010700007F12003184603F001FE0346002B01D0C0
:1010800001F0DAFE0F23FB6000233B6100237B614C
:101090000023BB610023FB6107F10C03002118460C
:1010A00004F064F80346002B01D001F0C5FE00BF38
:1010B0005037BD4680BD00BF003802400070004080
:1010C00080B500AF124B134A1A60114B124A5A6096
:1010D0000F4B00229A600E4B0022DA600C4B4FF44B
:1010E00080421A610A4B00225A61094B00229A6120
:1010F000074B0022DA61064B00221A62044802F014
:101100009BFD0346002B01D001F096FE00BF80BD81
:101110009400002000540040A086010080B596B0E5
:1011200000AF07F1480300221A605A609A60DA6043
:1011300007F1400300221A605A6007F124030022DD
:101140001A605A609A60DA601A615A619A613B1DAE
:101150002022002118460AF0ADF83D4B3D4A1A60A6
:101160003B4BA0225A603A4B00229A60384B4FF416
:101170007A72DA60364B00221A61354B00225A61CE
:10118000334B80229A61324804F0D0F90346002B99
:1011900001D001F051FE4FF48053BB6407F14803C6
:1011A00019462B4805F02CF80346002B01D001F01E
:1011B00043FE274804F009FA0346002B01D001F052
:1011C0003BFE00233B6400237B6407F14003194688
:1011D0001F4805F055FD0346002B01D001F02CFE01
:1011E00060237B620023BB620023FB6200237B63DE
:1011F0000023BB630023FB6307F124030C22194681
:10120000134804F03BFF0346002B01D001F014FE0D
:1012100000237B600023BB600023FB6000233B6155
:1012200000237B614FF40053BB6100233B623B1DF5
:101230001946074805F0A0FD0346002B01D001F038
:10124000FBFD034801F0BAFF00BF5837BD4680BD23
:10125000E80000200000014080B58CB000AF07F12D
:101260000C032422002118460AF024F83B1D00221A
:101270001A605A60214B4FF080421A601F4B0022C7
:101280005A601E4B00229A601C4B4FF6FF72DA60C8
:101290001A4B00221A61194B00229A610323FB604A
:1012A00000233B6101237B610023BB610A23FB61B7
:1012B00000233B6201237B620023BB620023FB62AD
:1012C00007F10C0319460D4804F018FC0346002BE7
:1012D00001D001F0B1FD00237B600023BB603B1D0A
:1012E0001946064805F0CCFC0346002B01D001F05E
:1012F000A3FD00BF3037BD4680BD00BF30010020D8
:1013000080B58CB000AF07F10C03242200211846F1
:1013100009F0D0FF3B1D00221A605A60204B214A81
:101320001A601F4B00225A601D4B00229A601C4B12
:101330004FF6FF72DA601A4B00221A61184B002236
:101340009A610323FB6000233B6101237B6100233F
:10135000BB610A23FB6100233B6201237B62002304
:10136000BB620A23FB6207F10C0319460C4804F028
:10137000C5FB0346002B01D001F05EFD00237B601E
:101380000023BB603B1D1946054805F079FC034668
:10139000002B01D001F050FD00BF3037BD4680BDAD
:1013A000780100200004004080B586B000AF07F14E
:1013B000100300221A605A603B4600221A605A60ED
:1013C0009A60DA60204B214A1A601F4B0F225A6044
:1013D0001D4B00229A601C4B4FF6FF72DA601A4BCD
:1013E00000221A61184B00229A61174804F00EFA85
:1013F0000346002B01D001F01FFD00233B610023B9
:101400007B6107F1100319460F4805F039FC0346CC
:10141000002B01D001F010FD00233B6001237B6015
:101420000023BB600023FB603B46042219460648AC
:1014300004F088FD0346002B01D001F0FDFC00BF45
:101440001837BD4680BD00BFC0010020000C004021
:1014500080B596B000AF07F1480300221A605A60C9
:101460009A60DA6007F1400300221A605A6007F1BF
:10147000240300221A605A609A60DA601A615A6185
:101480009A613B1D20220021184609F013FF434BAF
:10149000434A1A60414B00225A60404B00229A6036
:1014A0003E4B41F61F42DA603C4B00221A613B4B37
:1014B00000225A61394B00229A61384804F036F80C
:1014C0000346002B01D001F0B7FC4FF48053BB64FE
:1014D00007F148031946314804F092FE0346002BF9
:1014E00001D001F0A9FC2D4804F06FF80346002B51
:1014F00001D001F0A1FC00233B6400237B6407F1D1
:1015000040031946254805F0BBFB0346002B01D0DC
:1015100001F092FC60237B620023BB620023FB622C
:1015200000233B6300237B630023BB630023FB6337
:1015300007F1240300221946184804F09FFD0346D2
:10154000002B01D001F078FC07F124030422194696
:10155000124804F093FD0346002B01D001F06CFC0F
:1015600000237B600023BB600023FB6000233B6102
:1015700000237B614FF40053BB6100233B623B1DA2
:101580001946064805F0F8FB0346002B01D001F090
:1015900053FC00BF5837BD4680BD00BF0802002085
:1015A0000004014080B500AF114B124A1A60104B85
:1015B0004FF4E1325A600E4B00229A600C4B00222D
:1015C000DA600B4B00221A61094B0C225A61084B5E
:1015D00000229A61064B0022DA61054805F032FCD0
:1015E0000346002B01D001F027FC00BF80BD00BFE7
:1015F000500200200048004080B58AB000AF07F1DB
:10160000140300221A605A609A60DA601A6100239B
:101610003B61424B1B6B414A43F0100313633F4B4A
:101620001B6B03F010033B613B690023FB603B4BEA
:101630001B6B3A4A43F001031363384B1B6B03F0F7
:101640000103FB60FB680023BB60344B1B6B334A18
:1016500043F004031363314B1B6B03F00403BB60C3
:10166000BB6800237B602D4B1B6B2C4A43F00203AD
:1016700013632A4B1B6B03F002037B607B68002221
:101680004FF4BC61264802F0A3FA00223C21254811
:1016900002F09EFA00224FF48051234802F098FA9B
:1016A0004FF4BC637B610123BB610023FB6100231A
:1016B0003B6207F114031946194802F0EDF80C23B8
:1016C0007B610123BB610023FB6102233B6207F1C5
:1016D00014031946134802F0DFF830237B6101231D
:1016E000BB610023FB6100233B6207F11403194631
:1016F0000C4802F0D1F84FF480537B610123BB61A9
:101700000023FB6100233B6207F1140319460648DE
:1017100002F0C2F800BF2837BD4680BD0038024045
:1017200000100240000002400008024080B582B074
:1017300000AF78604FF6FF730A220649064805F0AD
:10174000D1FB4FF48061054802F05BFA00BF083717
:10175000BD4680BDAC0200205002002000100240B7
:1017600080B400AF084B77221A70084B30221A70F1
:10177000074B61221A70074B30221A7000BFBD461A
:101780005DF8047B704700BF0000002001000020CE
:10179000020000200300002080B584B000AF786014
:1017A0003960082009F0AAFC0346BB600023FB60F7
:1017B0000BE0FB683A6813441978BA68FB68134475
:1017C0000A461A70FB680133FB60FB68032BF0DDEF
:1017D000BB6800225A607B6893E8070000F064F859
:1017E0000346002B03D07B68BA685A6003E07B682D
:1017F0009B68BA685A607B68BA689A607B681B68A5
:101800005A1C7B681A6000BF1037BD4680BD80B58A
:1018100084B000AF78607B68002B03D07B685B6886
:10182000002B01D1002317E07B685B68FB607B68BD
:101830005B685A687B685A607B685B68002B02D1E2
:101840007B6800229A60F86809F060FC7B681B687E
:101850005A1E7B681A60012318461037BD4680BDAA
:1018600080B485B000AF3B1D83E80700BB681A78E1
:10187000094B1A70BB685A78084B1A70BB689A7883
:10188000074B1A70BB68DA78064B1A7000BF143722
:10189000BD465DF8047B7047000000200100002079
:1018A000020000200300002080B485B000AF3B1D83
:1018B00083E807007B68002B01D1012300E00023AF
:1018C00018461437BD465DF8047B704780B584B078
:1018D00000AF78604123FB7307F10F014FF6FF73F0
:1018E00001220B4805F0FEFAFB7B592B04D8FB7B49
:1018F0000133DBB2FB7301E04123FB734FF48061E2
:10190000044802F07EF94FF47A7006F001FCE3E738
:10191000500200200010024080B588B000AF78600F
:10192000104A07F10C0307CA03C31A7007F1150325
:1019300000221A605A60C3F8072007F10C030A4A14
:101940000A49184609F096FC07F10C031A461421BF
:101950000A2009F015FB09F09FF94FF47A7006F0A0
:10196000D7FBEAE7B8BA0008AC020020B4BA000816
:101970002DE9B0439EB000AF78600523A7F8423050
:101980004FF00002B84BC7E91C234FF00002B64BE2
:10199000C7E91A230023A7F866304FF47A73A7F833
:1019A00040306423FB87032387F85B30002387F8EC
:1019B0005A30022387F85930A02387F8583037234C
:1019C00087F857300023A7F85430A84B1B8887F8B6
:1019D0003D30002387F853300021A54803F04EFE28
:1019E0000421A34803F04AFE0C21A24803F046FE5E
:1019F0000023BB620023FB6200233B639E4B7B62A0
:101A00009E4B3B629E4BFB6107F1240207F12803CA
:101A100011461846FFF7C0FE07F11C0207F1280324
:101A200011461846FFF7B8FE07F1240207F1280314
:101A300011461846FFF7B0FE07F11C0207F1280314
:101A400011461846FFF7A8FE07F1280393E80700A0
:101A5000FFF72AFF0346012B01F0D1800023BB646E
:101A600007F1280393E80700FFF7FAFE854B0022F1
:101A70001A600023A7F85430012387F86530824BA1
:101A80001B78303B97F8582003FB02F297F8573049
:101A9000D31AFB65FB6D002B01D10023FB657B4B4B
:101AA0001B781A46784B1B78303B07F108007849C1
:101AB00009F0E0FB07F108031A461E210A2009F08D
:101AC0005FFA744B1B78302B04D14FF42F63A7F8C7
:101AD000623003E04FF4C863A7F862306E4B1B78A6
:101AE000612B59D1614B1B881846FEF713FD044644
:101AF0000D46684B1B78303B1846FEF70BFD54A390
:101B0000D3E90023FEF770FD02460B469046994646
:101B1000B7F842301846FEF7FDFC02460B46404639
:101B20004946FEF761FD02460B4620462946FEF770
:101B3000A3FB02460B464F490C6810461946FFF7B7
:101B400015F803462364534B1B78303B1846FEF7C9
:101B5000E1FC41A3D3E90023FEF746FD02460B4614
:101B6000104619464FF000023F4BFEF787FB024636
:101B70000B46C7E91C234FF000023B4BC7E91A2371
:101B8000424B1B78772B03D1444B1B68FB648CE0E2
:101B9000434B1B68FB6488E03F4B1B78642B40F091
:101BA0008480324B1B881846FEF7B4FC04460D4671
:101BB000384B1B78303B1846FEF7ACFC28A3D3E922
:101BC0000023FEF711FD02460B4690469946B7F8F2
:101BD00042301846FEF79EFC02460B4640464946F8
:101BE000FEF702FD02460B4620462946FEF746FB5D
:101BF00002460B461F490C6810461946FEF7B6FF11
:101C0000034623644FF00002174BC7E91C23214B06
:101C10001B78303B1846FEF77DFC0FA3D3E9002369
:101C2000FEF7E2FC02460B46104619464FF0000252
:101C30000D4BFEF723FB02460B46C7E91A23134B55
:101C40001B78772B2ED1164B1B68FB642DE000BF51
:101C50009A9999999999F13FB81E85EB51B89E3F91
:101C6000AE47E17A14AEFB3F0000F03F04000020D5
:101C700008020020E80000206B30303077356137F3
:101C800077356138F00200200100002000000020BC
:101C9000CCBA000803000020020000200800002049
:101CA0000C000020BC4B1B68FB64B7F84030A7F861
:101CB0006630BA4B1B78772B40F0678201220421F3
:101CC000B74801F085FF00220821B54801F080FFE8
:101CD00001222021B24801F07BFF00221021B048F0
:101CE00001F076FFAF4B1B78302B40F0AA80B7F89D
:101CF00066301846FEF70EFCD7E91C23FEF774FC8D
:101D000002460B46A8490C6810461946FEF72EFFFE
:101D100003466363B7F866301846FEF7FBFBD7E966
:101D20001A23FEF761FC02460B469F490C681046D9
:101D30001946FEF71BFF0346A36397F86530012B96
:101D400065D1B7F86620FB8F1344A7F86630B7F863
:101D50006620B7F862309A42C0F01382002387F8F9
:101D600065303AE0914BD3E9002310461946FEF75F
:101D7000D5FE0346BB63BB6B9AB2B7F8543013442D
:101D80009BB2A7F854308A4B1B88DAB2B7F85430AC
:101D9000DBB297F85A1011FB03F3D9B2BB6BDBB27D
:101DA00097F85B0010FB03F3DBB20B44DBB2134488
:101DB00087F83D307F4B1B6897F83D201A64BB6C59
:101DC0000133BB64BB6CB3F5167F03DD7A4AFB6D50
:101DD0001360D6E10A2006F09BF9774B1B68184682
:101DE000FEF788FB04460D46FB6D1846FEF792FB96
:101DF00065A3D3E90023FEF7F7FB02460B46204616
:101E00002946FEF763FE0346002BABD1B9E1B7F8D4
:101E10006620B7F840309A420BD9FB8F1A469203DE
:101E2000D21A9200D31A9AB2B7F866301344A7F8C0
:101E30006630614B1B68FA6D9A4200F2A28100F095
:101E4000D4BE584B1B78352B00F2BA8097F8583027
:101E50005A0097F85730D31AFB6508F077FE6420D4
:101E600006F056F9F86CFEF755FB49A3D3E90023B9
:101E7000FEF7BAFB02460B4610461946FEF74EFE29
:101E80000346FB644D4B1B78303B9BB21A469200D5
:101E900013441A4691001A460B4613441B01A7F837
:101EA0006630B7F866301846FEF734FBD7E91C23D6
:101EB000FEF79AFB02460B463B490C681046194652
:101EC000FEF754FE03466363B7F866301846FEF724
:101ED00021FBD7E91A23FEF787FB02460B4632495E
:101EE0000C6810461946FEF741FE0346A36302E064
:101EF0000A2006F00DF92D4BD3E9002310461946B0
:101F0000FEF70CFE0346002BB8BF5B42FA6C9A4208
:101F1000EEDC274B1A88274B1B681A64224B1B6880
:101F200000225A63204B1B6800229A631F4BD3E99F
:101F300000014FF000024FF00003FEF7E5FD0346FD
:101F4000002B0ED0194BD3E90045F86CFEF7E2FAEE
:101F500002460B4620462946FEF78EF902460B46FE
:101F600009E0F86CFEF7D6FA104BD3E90023FEF730
:101F700085F902460B460D49C1E900234FF4FA707A
:101F800006F0C6F800F031BE666666666666EE3F2D
:101F90009A9999999999D93F08000020000000204A
:101FA000000002400300002008020020E0020020A0
:101FB00004000020E8000020F002002001000020C2
:101FC00008F0C4FD642006F0A3F8B84B1B78303B42
:101FD0009BB21A46920013441A4691001A460B46C9
:101FE00013441B01A7F86630B7F866301846FEF7B1
:101FF00091FAD7E91C23FEF7F7FA02460B46AC49E3
:102000000C6810461946FEF7B1FD03466363B7F846
:1020100066301846FEF77EFAD7E91A23FEF7E4FA8F
:1020200002460B46A2490C6810461946FEF79EFD73
:102030000346A36332E00A2006F06AF8BB6C013362
:10204000BB64BB6CB3F57A7F28DD9A4BD3E9000102
:102050004FF000024FF00003FEF756FD0346002B41
:102060000ED0944BD3E90045F86CFEF753FA0246C4
:102070000B4620462946FEF7FFF802460B4609E0CC
:10208000F86CFEF747FA8B4BD3E90023FEF7F6F81E
:1020900002460B468749C1E900230DE0854BD3E991
:1020A000002310461946FEF739FD0346002BB8BF42
:1020B0005B42FA6C9A42BEDC7F4B1A887F4B1B68EE
:1020C0001A640023A7F86630B7F866301846FEF7A2
:1020D00021FAD7E91C23FEF787FA02460B4674491A
:1020E0000C6810461946FEF741FD03466363B7F8D6
:1020F00066301846FEF70EFAD7E91A23FEF774FA8F
:1021000002460B466A490C6810461946FEF72EFD3A
:102110000346A363674BD3E900014FF000024FF081
:102120000003FEF7F1FC0346002B0ED0614BD3E910
:102130000045F86CFEF7EEF902460B4620462946AC
:10214000FEF79AF802460B4609E0F86CFEF7E2F952
:10215000584BD3E90023FEF791F802460B46554948
:10216000C1E90023032387F85B30002387F85A3046
:102170000023A7F854304FF47A7005F0C9FF00F03F
:1021800034BD0A2005F0C4FF98E54D4B1B78732B36
:1021900040F0CA81002204214A4801F019FD0122C1
:1021A0000821484801F014FD00222021454801F093
:1021B0000FFD01221021434801F00AFD424B1B781C
:1021C000302B40F0BC80B7F866301846FEF7A2F915
:1021D000D7E91C23FEF708FA02460B4634490C687F
:1021E00010461946FEF7C2FC03466363B7F8663033
:1021F0001846FEF78FF9D7E91A23FEF7F5F90246DC
:102200000B462B490C6810461946FEF7AFFC0346F7
:10221000A36397F86530012B77D1B7F86620FB8F61
:102220001344A7F86630B7F86620B7F862309A42D0
:10223000C0F07681002387F865304CE01D4BD3E970
:10224000002310461946FEF769FC0346BB63BB6BCF
:102250009AB2B7F8543013449BB2A7F85430164BD7
:102260001B88DAB2BB6BDBB297F85B1011FB03F390
:10227000DBB2D31ADAB2B7F85430DBB297F85A109F
:1022800011FB03F3DBB2D31A87F83D300B4B1B680D
:1022900097F83D201A64BB6C0133BB64BB6CB3F58B
:1022A000167F15DD094AFB6D136039E1010000203E
:1022B00008020020E002002004000020E8000020C6
:1022C000000000200000024003000020F002002077
:1022D0000A2005F01DFFAE4B1B681846FEF70AF9F1
:1022E00004460D46FB6D1846FEF714F9A6A3D3E984
:1022F0000023FEF779F902460B4620462946FEF7F1
:10230000E5FB0346002B99D10AE1B7F86620B7F840
:1023100040309A420BD9FB8F1A469203D21A920090
:10232000D31A9AB2B7F866301344A7F86630984BC0
:102330001B68FA6D9A4200F2F38000F056BC08F078
:1023400005FC642005F0E4FEF86CFEF7E3F88EA3CC
:10235000D3E90023FEF748F902460B46104619461A
:10236000FEF7DCFB03467B638A4B1B78303B9BB25A
:102370001A46920013441A4691001A460B4613441B
:102380001B01A7F86630B7F866301846FEF7C2F8AA
:10239000D7E91C23FEF728F902460B467E490C6854
:1023A00010461946FEF7E2FB03466363B7F8663052
:1023B0001846FEF7AFF8D7E91A23FEF715F90246DB
:1023C0000B4675490C6810461946FEF7CFFB0346CD
:1023D000A36332E00A2005F09BFEBB6C0133BB64B3
:1023E000BB6CB3F57A7F28DD6C4BD3E900014FF06D
:1023F00000024FF00003FEF787FB0346002B0ED0D0
:10240000664BD3E90045786BFEF784F802460B462D
:1024100020462946FDF730FF02460B4609E0786B5F
:10242000FEF778F85D4BD3E90023FDF727FF02465E
:102430000B465A49C1E900230DE0584BD3E900236C
:1024400010461946FEF76AFB0346002BB8BF5B42F5
:102450007A6B9A42BEDC524B1A88524B1B681A6444
:102460000023A7F86630B7F866301846FEF752F832
:10247000D7E91C23FEF7B8F802460B4646490C681C
:1024800010461946FEF772FB03466363B7F86630E1
:102490001846FEF73FF8D7E91A23FEF7A5F80246DB
:1024A0000B463D490C6810461946FEF75FFB034694
:1024B000A3633A4BD3E900014FF000024FF0000351
:1024C000FEF722FB0346002B0ED0344BD3E9004528
:1024D000786BFEF71FF802460B4620462946FDF7AB
:1024E000CBFE02460B4609E0786BFEF713F82B4B48
:1024F000D3E90023FDF7C2FE02460B462749C1E996
:10250000002397F8593087F85B30002387F85A305A
:102510000023A7F854304FF47A7005F0F9FD64E316
:102520000A2005F0F5FD35E61F4B1B786B2B41D1DA
:102530001E4B00221A601E4B00221A6017494FF0F2
:1025400000024FF00003C1E900230023A7F8663022
:10255000114B1B68B7F866205A630F4B1B68B7F81E
:1025600066209A6308F0F2FA642005F0D1FD094B69
:102570001B78303B322202FB03F3184605F0C8FDFE
:1025800033E300BFAFF30080666666666666EE3FC3
:10259000F00200200100002008020020E0020020DC
:1025A00004000020E800002000000020E8020020D5
:1025B000EC020020A64B1B78792B40F09180A54BB4
:1025C0001B78A3F1300213469B0013445B00FB65AC
:1025D000B7F84030A7F86630002204219E4801F089
:1025E000F7FA012208219C4801F0F2FA002220218A
:1025F000994801F0EDFA01221021974801F0E8FA1C
:10260000964B1B68B7F866205A63944B1B68B7F863
:1026100066209A6342E0924BD3E9002310461946A4
:10262000FEF77CFA0346BB63BB6B9AB2B7F8543033
:1026300013449BB2A7F854308A4B1B881846FDF709
:1026400069FF04460D4697F85B30BA6B03FB02F254
:1026500097F85A30B7F9541001FB03F313441846A6
:10266000FDF758FF76A3D3E90023FDF7BDFF02462F
:102670000B4620462946FDF7FFFD02460B46104655
:102680001946FEF773FA034687F83D30764B1B6810
:1026900097F83D201A64012005F03AFD734B1B6842
:1026A0001846FDF727FF04460D46FB6D1846FDF75B
:1026B00031FF65A3D3E90023FDF796FF02460B46E1
:1026C00020462946FEF702FA0346002BA3D1634BAE
:1026D0001B6800225A63614B1B6800229A6384E2E4
:1026E0005B4B1B78752B40F091805A4B1B78A3F104
:1026F000300213469B0013445B00FB65B7F8403083
:10270000A7F8663001220421534801F061FA002243
:102710000821514801F05CFA012220214E4801F0C5
:1027200057FA002210214C4801F052FA4B4B1B681B
:10273000B7F866205A63494B1B68B7F866209A635E
:1027400042E0474BD3E9002310461946FEF7E6F96D
:102750000346BB63BB6B9AB2B7F8543013449BB2C9
:10276000A7F854303F4B1B881846FDF7D3FE0446AC
:102770000D4697F85B30BA6B03FB02F297F85A30BC
:10278000B7F9541001FB03F313441846FDF7C2FEDA
:102790002BA3D3E90023FDF727FF02460B46204673
:1027A0002946FDF76BFD02460B4610461946FEF71B
:1027B000DDF9034687F83D302B4B1B6897F83D2029
:1027C0001A64012005F0A4FC284B1B681846FDF78D
:1027D00091FE04460D46FB6D1846FDF79BFE1AA3BD
:1027E000D3E90023FDF700FF02460B4620462946A9
:1027F000FEF76CF90346002BA3D1184B1B6800228F
:102800005A63164B1B6800229A63EEE1104B1B784B
:102810006C2B2DD10F4B1B78312B06D18E2387F8D3
:102820005830322387F85730DFE1A32387F8583038
:10283000372387F85730052387F85930D5E100BF93
:102840009A9999999999E93F666666666666EE3F38
:1028500000000020010000200000024008020020CB
:10286000E002002004000020E8000020F002002028
:10287000A14B1B786E2B40F07681A04B00221A6092
:10288000012204219E4801F0A3F9002208219C485E
:1028900001F09EF901222021994801F099F90022C6
:1028A0001021974801F094F997F85330002B40F02D
:1028B0009D80944B1B8803F12802934B1B681A647C
:1028C000924B1B684FF448725A63904B1B6840F65A
:1028D00028229A638E4BD3E90045FB6CDA0F134430
:1028E0005B101846FDF716FE02460B4620462946A9
:1028F000FDF7C2FC02460B4610461946FEF70EF9DC
:10290000034687F83C3002E00A2005F001FC97F905
:102910003C301846FDF7FEFD7D4BD3E90023FEF762
:10292000D5F80346002BEFD1784B1B6800225A6381
:10293000764B1B6800229A634FF4FA7005F0E8FBAF
:10294000704B1A88704B1B681A646C4B1B681846D6
:10295000FDF7D0FD66A3D3E90023FDF745FE02464F
:102960000B4610461946FEF701F90346FB65634B1B
:1029700000221A6000220421614801F029F9012295
:1029800008215F4801F024F9002220215C4801F071
:102990001FF9012210215A4801F01AF90A2005F006
:1029A000B7FB5A4B1B684FF4FA625A63574B1B68CC
:1029B0004FF4FA629A6302E00A2005F0A9FB4F4B3C
:1029C0001B68FA6D9A42F7D8504B1B6800225A6375
:1029D0004E4B1B6800229A6397F85330002B0CBFB4
:1029E00001230023DBB287F85330FEE0454B1B8800
:1029F000A3F11E02444B1B681A64444B1B6840F64B
:102A000028225A63414B1B684FF448729A63FB6C4F
:102A1000DA0F13445B101846FDF77CFD3C4BD3E9FD
:102A20000023FDF72BFC02460B4610461946FEF725
:102A300075F8034687F83C3002E00A2005F068FB91
:102A400097F93C301846FDF765FD314BD3E900237B
:102A5000FEF75AF80346002BEFD12C4B1B680022DF
:102A60005A632A4B1B6800229A634FF4FA7005F0F0
:102A70004FFB244B1A88244B1B681A641F4B1B689E
:102A80001846FDF737FD1AA3D3E90023FDF7ACFD87
:102A900002460B4610461946FEF768F80346FB65EA
:102AA000164B00221A6000220421154801F090F80C
:102AB00001220821124801F08BF800222021104841
:102AC00001F086F8012210210D4801F081F80A205A
:102AD00005F01EFB0D4B1B684FF4FA625A630B4B5B
:102AE0001B684FF4FA629A6317E000BFAFF30080EF
:102AF000CDCCCCCCCCCCEC3F00000020F0020020B0
:102B00000000024004000020E8000020080200202D
:102B1000E00200200A2005F0FBFA444B1B68FA6D26
:102B20009A42F7D8424B1B6800225A63404B1B68FD
:102B300000229A63FB6CDA0F13445B101846FDF712
:102B4000E9FC3C4BD3E90023FDF7CAFF0346002B09
:102B50004BD097F85330002B0CBF01230023DBB27E
:102B600087F8533041E0344B1B78682B18D1642030
:102B700005F0CEFAFEF7B2F9304B1A78304B5A70A6
:102B80004FF6FF7302222E492E4804F0ABF903469C
:102B9000002B2AD14FF480612B4801F032F824E059
:102BA000254B1B786D2B20D1642005F0B1FA244B06
:102BB00065221A7000237B640CE04FF6FF7302223B
:102BC0001F49204804F08EF9642005F0A1FA7B6CBF
:102BD00001337B647B6C032BEFDD4FF480611A487B
:102BE00001F00FF8164B77221A700A2005F090FAC0
:102BF00007F128031846FEF70AFEFEF725BFFEF789
:102C0000AFFD0023A7F86630104B1A88104B1B68E5
:102C10001A64074B1B68B7F866205A63044B1B689D
:102C2000B7F866209A63FEF70FBF00BFF0020020DE
:102C300008020020E0020020000000201200002016
:102C4000100000205002002000100240040000206C
:102C5000E800002080B58CB000AF78603C213A4895
:102C600002F0F2FF3C21394802F0EEFF0023FB6244
:102C70000023BB6200F03CFC786200F039FC0246A5
:102C80007B6AD31A0A2BF8D92F4B1B685B6A3B620D
:102C90002E4B1B685B6AFB613B6A47F6F46293420A
:102CA00005DD3B6AA3F57F43FF3BFB6206E03B6A21
:102CB00047F6F362934201DC3B6AFB62FB6947F62D
:102CC000F462934205DDFB69A3F57F43FF3BBB62E2
:102CD00006E0FB6947F6F362934201DCFB69BB62E5
:102CE000FA6ABB6A13441A4A1360FB6A83EAE37206
:102CF000A2EBE372BB6A002BB8BF5B4213441A46D7
:102D0000144B1B681344134A1360124B1A6807F1E3
:102D100008031149184608F0ADFA07F108031A46EE
:102D200028210A2008F02CF9074B1B6800225A6260
:102D3000064B1B6800225A6200F0DAFB78620A2018
:102D400005F0E6F999E700BF300100207801002086
:102D5000EC020020F0020020DCBA000800000000B5
:102D600080B588B000AF78600023BB8207F000FF19
:102D70000023FB830023BB832D494FF000024FF05B
:102D80000003C1E9002300F0B3FBB861642005F043
:102D9000BFF907F114031946372007F02DFF3B7DDB
:102DA0001B021AB27B7D1BB21343FB83B7F91E30A3
:102DB000642202FB03F31846FDF7ACFB1AA3D3E928
:102DC0000023FDF73BFD02460B4610461946FDF772
:102DD000A5FE0346BB83B7F91C301846FDF79AFBE6
:102DE000134BD3E90023FDF749FA02460B4610497D
:102DF000C1E900230E4BD3E9002310461946FDF725
:102E00008DFE024607F10C030A49184608F032FA13
:102E100007F10C031A4614210A2008F0B1F86420C7
:102E200005F076F9B5E700BF000000000088C34058
:102E3000E0020020E8BA000880B400AF72B600BF1C
:102E4000FEE7000080B582B000AF00237B60124B2C
:102E50005B6C114A43F4804353640F4B5B6C03F487
:102E600080437B607B6800233B600B4B1B6C0A4AF2
:102E700043F080531364084B1B6C03F080533B609A
:102E80003B6800220F216FF0010000F03CFC00BF06
:102E90000837BD4680BD00BF0038024080B58AB00B
:102EA00000AF786007F1140300221A605A609A603C
:102EB000DA601A617B681B68194A93422CD100239F
:102EC0003B61184B1B6B174A43F002031363154B0E
:102ED0001B6B03F002033B613B694FF440737B6162
:102EE0001223BB610023FB6103233B6204237B624B
:102EF00007F1140319460C4800F0CEFC0023FB60D8
:102F0000084B1B6C074A43F400131364054B1B6CFE
:102F100003F40013FB60FB6800BF2837BD4680BD8B
:102F200000540040003802400004024080B58AB0DE
:102F300000AF786007F1140300221A605A609A60AB
:102F4000DA601A617B681B68234A93420ED1002322
:102F50003B61224B5B6C214A43F0010353641F4BDE
:102F60005B6C03F001033B613B6930E07B681B68ED
:102F70001B4A93422BD10023FB60184B5B6C174A12
:102F800043F002035364154B5B6C03F00203FB60D8
:102F9000FB680023BB60114B1B6B104A43F004031A
:102FA00013630E4B1B6B03F00403BB60BB68C023B1
:102FB0007B610223BB610023FB6100233B6203238F
:102FC0007B6207F114031946064800F065FC00BF58
:102FD0002837BD4680BD00BF0000014000380240D8
:102FE000000401400008024080B58CB000AF78605A
:102FF00007F11C0300221A605A609A60DA601A61B5
:103000007B681B68B3F1804F4BD10023BB613F4B02
:103010001B6C3E4A43F0010313643C4B1B6C03F0F2
:103020000103BB61BB6900237B61384B1B6B374AD3
:1030300043F001031363354B1B6B03F001037B610A
:103040007B6900233B61314B1B6B304A43F0020329
:1030500013632E4B1B6B03F002033B613B694FF480
:103060000043FB6102233B6200237B620023BB62BF
:103070000123FB6207F11C031946254800F00CFCF4
:103080000823FB6102233B6200237B620023BB62B7
:103090000123FB6207F11C0319461E4800F0FCFBEC
:1030A00030E07B681B681C4A93422BD10023FB60F5
:1030B000164B1B6C154A43F002031364134B1B6C35
:1030C00003F00203FB60FB680023BB600F4B1B6B2C
:1030D0000E4A43F0010313630C4B1B6B03F0010317
:1030E000BB60BB68C023FB6102233B6200237B62A1
:1030F0000023BB620223FB6207F11C03194604484C
:1031000000F0CAFB00BF3037BD4680BD003802402A
:1031100000000240000402400004004080B58AB074
:1031200000AF786007F1140300221A605A609A60B9
:10313000DA601A617B681B681D4A934233D1002311
:103140003B611C4B1B6C1B4A43F008031364194B77
:103150001B6C03F008033B613B690023FB60154BCC
:103160001B6B144A43F001031363124B1B6B03F0F8
:103170000103FB60FB6802237B610223BB61002328
:10318000FB6100233B6202237B6207F114031946B3
:10319000094800F081FB00220521322000F0B3FA3B
:1031A000322000F0CCFA00BF2837BD4680BD00BFFA
:1031B000000C0040003802400000024080B588B09A
:1031C00000AF786007F10C0300221A605A609A6021
:1031D000DA601A617B681B68124A93421ED1002391
:1031E000BB60114B1B6B104A43F0100313630E4B73
:1031F0001B6B03F01003BB60BB684FF48043FB60A4
:1032000002233B6100237B610023BB610123FB613F
:1032100007F10C031946054800F03EFB00BF2037BC
:10322000BD4680BD00000140003802400010024051
:1032300080B58AB000AF786007F1140300221A60ED
:103240005A609A60DA601A617B681B681D4A934273
:1032500034D100233B611C4B1B6C1B4A43F480237D
:103260001364194B1B6C03F480233B613B690023FF
:10327000FB60154B1B6B144A43F004031363124BA2
:103280001B6B03F00403FB60FB684FF440637B613E
:103290000223BB610023FB6103233B6207237B62A4
:1032A00007F114031946094800F0F6FA0022052137
:1032B000272000F028FA272000F041FA00BF283725
:1032C000BD4680BD00480040003802400008024072
:1032D00080B400AFFEE780B400AFFEE780B400AF7B
:1032E000FEE780B400AFFEE780B400AFFEE780B435
:1032F00000AF00BFBD465DF8047B704780B500AFEE
:1033000000F0E2F806F0BCFB0346012B01D007F009
:10331000A3F900BF80BD000080B500AF024803F0F4
:1033200091FE00BF80BD00BF5002002080B500AFFD
:10333000024802F017FD00BF80BD00BFC0010020A1
:1033400080B586B000AF7860144A154BD31A7B6104
:103350007B693B61134B1B68002B02D1114B124A56
:103360001A60104B1A687B6813443A699A4207D274
:1033700007F0B8FF03460C221A604FF0FF3309E054
:10338000084B1B68FB60074B1A687B681344054AAF
:103390001360FB6818461837BD4680BD0000022048
:1033A00000040000F4020020A851002080B400AF07
:1033B000064BD3F88830054A43F47003C2F88830CE
:1033C00000BFBD465DF8047B704700BF00ED00E024
:1033D000DFF834D0FFF7EAFF0C480D490D4A00230F
:1033E00002E0D458C4500433C4188C42F9D30A4ABA
:1033F0000A4C002301E013600432A242FBD307F021
:1034000077FFFDF78BFD70470000022000000020D1
:103410007800002080C6000878000020A851002015
:10342000FEE7000080B500AF0E4B1B680D4A43F469
:10343000007313600B4B1B680A4A43F480631360EC
:10344000084B1B68074A43F480731360032000F0A5
:103450004FF90F2000F008F8FFF7F4FC002318469E
:1034600080BD00BF003C024080B582B000AF7860F4
:10347000124B1A68124B1B7819464FF47A73B3FB40
:10348000F1F3B2FBF3F3184600F067F90346002BA3
:1034900001D001230EE07B680F2B0AD80022796847
:1034A0004FF0FF3000F02FF9064A7B6813600023CD
:1034B00000E0012318460837BD4680BD14000020F7
:1034C0001C0000201800002080B400AF064B1B78C1
:1034D0001A46064B1B681344044A136000BFBD46DE
:1034E0005DF8047B704700BF1C000020F80200203C
:1034F00080B400AF034B1B681846BD465DF8047BE3
:10350000704700BFF802002080B584B000AF78603B
:10351000FFF7EEFFB8607B68FB60FB68B3F1FF3F2D
:1035200005D00A4B1B781A46FB681344FB6000BFAA
:10353000FFF7DEFF0246BB68D31AFA689A42F7D853
:1035400000BF00BF1037BD4680BD00BF1C0000207B
:1035500080B485B000AF78607B6803F00703FB6040
:103560000C4BDB68BB60BA684FF6FF031340BB60CF
:10357000FB681A02BB68134343F0BF6343F4003394
:10358000BB60044ABB68D36000BF1437BD465DF81A
:10359000047B704700ED00E080B400AF044BDB68B3
:1035A0001B0A03F007031846BD465DF8047B70470D
:1035B00000ED00E080B483B000AF0346FB7197F9E3
:1035C0000730002B0BDBFB7903F01F02074997F94B
:1035D00007305B09012000FA02F241F8232000BF06
:1035E0000C37BD465DF8047B704700BF00E100E08A
:1035F00080B483B000AF03463960FB7197F90730A0
:10360000002B0ADB3B68DAB20C4997F9073012014C
:10361000D2B20B4483F800230AE03B68DAB20849CF
:10362000FB7903F00F03043B1201D2B20B441A766C
:1036300000BF0C37BD465DF8047B704700E100E039
:1036400000ED00E080B489B000AFF860B9607A6046
:10365000FB6803F00703FB61FB69C3F10703042B5D
:1036600028BF0423BB61FB690433062B02D9FB6925
:10367000033B00E000237B614FF0FF32BB6902FA9D
:1036800003F3DA43BB681A407B699A404FF0FF317D
:103690007B6901FA03F3D9437B680B401343184657
:1036A0002437BD465DF8047B7047000080B582B0CA
:1036B00000AF78607B68013BB3F1807F01D30123C9
:1036C0000FE00A4A7B68013B53600F214FF0FF3047
:1036D000FFF78EFF054B00229A60044B07221A6009
:1036E000002318460837BD4680BD00BF10E000E04B
:1036F00080B582B000AF78607868FFF729FF00BF1F
:103700000837BD4680BD80B586B000AF0346B960BE
:103710007A60FB7300237B61FFF73EFF78617A6874
:10372000B9687869FFF78EFF024697F90F301146A6
:103730001846FFF75DFF00BF1837BD4680BD80B556
:1037400082B000AF0346FB7197F907301846FFF7C8
:1037500031FF00BF0837BD4680BD80B582B000AFE5
:1037600078607868FFF7A2FF034618460837BD4621
:1037700080BD80B584B000AF78607B689B6DFB60D6
:10378000FFF7B6FEB8607B6893F83530DBB2022BEA
:1037900008D07B6880225A657B68002283F8342039
:1037A000012352E07B681B681A687B681B6822F063
:1037B00016021A607B681B685A697B681B6822F0D6
:1037C00080025A617B681B6C002B03D17B689B6C69
:1037D000002B07D07B681B681A687B681B6822F087
:1037E00008021A607B681B681A687B681B6822F0F5
:1037F00001021A6013E0FFF77BFE0246BB68D31A92
:10380000052B0CD97B6820225A657B68032283F83C
:1038100035207B68002283F83420032315E07B6881
:103820001B681B6803F00103002BE4D17B68DB6D90
:103830003F229A40FB689A607B68012283F835201A
:103840007B68002283F83420002318461037BD46D9
:1038500080BD80B483B000AF78607B6893F835306A
:10386000DBB2022B04D07B6880225A6501230CE076
:103870007B68052283F835207B681B681A687B68A3
:103880001B6822F001021A60002318460C37BD465F
:103890005DF8047B7047000080B489B000AF7860A9
:1038A000396000237B6100233B610023BB6100235F
:1038B000FB616BE10122FB6902FA03F37B613B6868
:1038C0001B687A6913403B613A697B699A4240F010
:1038D0005A813B685B6803F00303012B05D03B680A
:1038E0005B6803F00303022B30D17B689B68BB61EC
:1038F000FB695B00032202FA03F3DB43BA6913405E
:10390000BB613B68DA68FB695B0002FA03F3BA69E2
:103910001343BB617B68BA699A607B685B68BB6173
:103920000122FB6902FA03F3DB43BA691340BB616E
:103930003B685B681B0903F00102FB6902FA03F3B1
:10394000BA691343BB617B68BA695A603B685B68BC
:1039500003F00303032B17D07B68DB68BB61FB69B3
:103960005B00032202FA03F3DB43BA691340BB6135
:103970003B689A68FB695B0002FA03F3BA69134378
:10398000BB617B68BA69DA603B685B6803F003037C
:10399000022B23D1FB69DA087B68083253F8223006
:1039A000BB61FB6903F007039B000F2202FA03F3DC
:1039B000DB43BA691340BB613B681A69FB6903F0DA
:1039C00007039B0002FA03F3BA691343BB61FB6967
:1039D000DA087B680832B96943F822107B681B68F3
:1039E000BB61FB695B00032202FA03F3DB43BA69A4
:1039F0001340BB613B685B6803F00302FB695B003B
:103A000002FA03F3BA691343BB617B68BA691A60AF
:103A10003B685B6803F44033002B00F0B480002364
:103A2000FB60604B5B6C5F4A43F4804353645D4BC7
:103A30005B6C03F48043FB60FB685B4AFB699B089B
:103A4000023352F82330BB61FB6903F003039B0090
:103A50000F2202FA03F3DB43BA691340BB617B68B0
:103A6000524A93422BD07B68514A934225D07B68BF
:103A7000504A93421FD07B684F4A934219D07B68CB
:103A80004E4A934213D07B684D4A93420DD07B68D7
:103A90004C4A934207D07B684B4A934201D107239B
:103AA0000EE008230CE006230AE0052308E00423C7
:103AB00006E0032304E0022302E0012300E00023E8
:103AC000FA6902F0030292009340BA691343BB61A2
:103AD0003549FB699B080233BA6941F823203B4B07
:103AE0009B68BB613B69DB43BA691340BB613B68C0
:103AF0005B6803F48013002B03D0BA693B6913435E
:103B0000BB61324ABB699360304BDB68BB613B6988
:103B1000DB43BA691340BB613B685B6803F4001385
:103B2000002B03D0BA693B691343BB61274ABB69C9
:103B3000D360264B5B68BB613B69DB43BA691340CA
:103B4000BB613B685B6803F40033002B03D0BA69A8
:103B50003B691343BB611D4ABB6953601B4B1B6828
:103B6000BB613B69DB43BA691340BB613B685B687F
:103B700003F48033002B03D0BA693B691343BB6164
:103B8000124ABB691360FB690133FB61FB690F2BB0
:103B90007FF690AE00BF00BF2437BD465DF8047BC2
:103BA000704700BF0038024000380140000002406A
:103BB0000004024000080240000C024000100240D5
:103BC0000014024000180240001C0240003C01406A
:103BD00080B483B000AF78600B467B8013467B7067
:103BE0007B78002B03D07A887B689A6103E07B881E
:103BF0001A047B689A6100BF0C37BD465DF8047BF0
:103C0000704780B485B000AF78600B467B807B68DE
:103C10005B69FB607A88FB6813401A04FB68D94330
:103C20007B880B401A437B689A6100BF1437BD46FE
:103C30005DF8047B7047000080B584B000AF786009
:103C40007B68002B01D101232BE17B6893F83D3089
:103C5000DBB2002B06D17B68002283F83C20786819
:103C6000FFF71CF97B68242283F83D207B681B68E2
:103C70001A687B681B6822F001021A607B681B6867
:103C80001A687B681B6842F400421A607B681B68F4
:103C90001A687B681B6822F400421A6001F01EFC5F
:103CA000F8607B685B68814A934207D8FB68804A6A
:103CB000934294BF01230023DBB206E0FB687D4AF8
:103CC000934294BF01230023DBB2002B01D00123D8
:103CD000E7E0FB68784AA2FB03239B0CBB607B6890
:103CE0001B685B6823F03F017B681B68BA680A4366
:103CF0005A607B681B681B6A23F03F017B685B6826
:103D00006A4A934202D8BB68013309E0BB684FF4AA
:103D1000967202FB03F3694AA2FB03239B0901335A
:103D20007A6812680B4313627B681B68DB6923F4B3
:103D30004F4222F0FF027B685B685C498B4219D8D6
:103D4000FB68591E7B685B685B00B1FBF3F3591C91
:103D500040F6FC730B40002B0AD0FB68591E7B68B1
:103D60005B685B00B1FBF3F30133C3F30B0351E07A
:103D700004234FE07B689B68002B11D1FB68581E21
:103D80007B6859680B465B000B44B0FBF3F30133CF
:103D9000C3F30B03002B0CBF01230023DBB212E0A3
:103DA000FB68581E7B6859680B469B000B449900C2
:103DB0000B44B0FBF3F30133C3F30B03002B0CBF35
:103DC00001230023DBB2002B01D0012322E07B681A
:103DD0009B68002B0ED1FB68581E7B6859680B4608
:103DE0005B000B44B0FBF3F30133C3F30B0343F469
:103DF00000430FE0FB68581E7B6859680B469B0028
:103E00000B4499000B44B0FBF3F30133C3F30B03F2
:103E100043F44043796809681343CB617B681B68AE
:103E20001B6823F0C0017B68DA697B681B6A1A4350
:103E30007B681B680A431A607B681B689B6823F4D5
:103E4000034323F0FF037A6811697A68D26811434B
:103E50007A6812680B4393607B681B68DB6823F009
:103E6000FF017B685A697B689B691A437B681B6802
:103E70000A43DA607B681B681A687B681B6842F03B
:103E800001021A607B6800221A647B68202283F892
:103E90003D207B6800221A637B68002283F83E2065
:103EA000002318461037BD4680BD00BFA086010024
:103EB0007F841E00FF083D0083DE1B43D34D62104C
:103EC00080B588B002AFF8607A601A460B467B81F5
:103ED00013463B81FFF70CFB7861FB6893F83D309C
:103EE000DBB2202B40F0E0807B6900931923012294
:103EF0007049F86800F064FC0346002B01D00223EF
:103F0000D3E0FB6893F83C30012B01D10223CCE0D5
:103F1000FB68012283F83C20FB681B681B6803F0E8
:103F20000103012B07D0FB681B681A68FB681B683C
:103F300042F001021A60FB681B681A68FB681B6884
:103F400022F400621A60FB68212283F83D20FB689E
:103F5000102283F83E20FB6800221A64FB687A680E
:103F60005A62FB683A895A85FB685B8D9AB2FB6896
:103F70001A85FB68504ADA6279897B693A6AF8687F
:103F800000F0CEFA0346002B01D001238DE0002380
:103F90003B61FB681B685B693B61FB681B689B6955
:103FA0003B613B6966E07A69396AF86800F022FD96
:103FB0000346002B0DD0FB681B6C042B07D1FB685C
:103FC0001B681A68FB681B6842F400721A600123C0
:103FD0006BE0FB685B6A1A78FB681B681A61FB6818
:103FE0005B6A5A1CFB685A62FB685B8D9BB2013BA3
:103FF0009AB2FB685A85FB681B8D013B9AB2FB683D
:104000001A85FB681B685B6903F00403042B1BD152
:10401000FB681B8D002B17D0FB685B6A1A78FB6866
:104020001B681A61FB685B6A5A1CFB685A62FB6872
:104030005B8D9BB2013B9AB2FB685A85FB681B8D76
:10404000013B9AB2FB681A857A69396AF86800F010
:1040500019FD0346002B0DD0FB681B6C042B07D108
:10406000FB681B681A68FB681B6842F400721A60E0
:1040700001231AE0FB681B8D002B94D1FB681B68A1
:104080001A68FB681B6842F400721A60FB68202201
:1040900083F83D20FB68002283F83E20FB68002265
:1040A00083F83C20002300E0022318461837BD4661
:1040B00080BD00BF020010000000FFFF80B58CB083
:1040C00002AFF8607A601A460B467B8113463B814B
:1040D000FFF70EFA7862FB6893F83D30DBB2202BD5
:1040E00040F017827B6A0093192301227C49F8680B
:1040F00000F066FB0346002B01D002230AE2FB68B6
:1041000093F83C30012B01D1022303E2FB6801222A
:1041100083F83C20FB681B681B6803F00103012B3C
:1041200007D0FB681B681A68FB681B6842F0010235
:104130001A60FB681B681A68FB681B6822F400623F
:104140001A60FB68222283F83D20FB68102283F866
:104150003E20FB6800221A64FB687A685A62FB689A
:104160003A895A85FB685B8D9AB2FB681A85FB68B1
:104170005C4ADA6279897B6A3A6BF86800F052FA35
:104180000346002B01D00123C4E1FB681B8D002BEB
:1041900013D100233B62FB681B685B693B62FB68D1
:1041A0001B689B693B623B6AFB681B681A68FB687B
:1041B0001B6842F400721A6098E1FB681B8D012BAA
:1041C0001BD1FB681B681A68FB681B6822F48062BD
:1041D0001A600023FB61FB681B685B69FB61FB687D
:1041E0001B689B69FB61FB69FB681B681A68FB68BD
:1041F0001B6842F400721A6078E1FB681B8D022B89
:104200001BD1FB681B681A68FB681B6822F480627C
:104210001A60FB681B681A68FB681B6842F400623E
:104220001A600023BB61FB681B685B69BB61FB68AC
:104230001B689B69BB61BB6958E1FB681B681A6816
:10424000FB681B6842F480621A6000237B61FB6894
:104250001B685B697B61FB681B689B697B617B6991
:1042600044E1FB681B8D032B00F2F180FB681B8D82
:10427000012B23D17A6A396BF86800F04BFC0346B6
:10428000002B01D0012345E1FB681B681A69FB681C
:104290005B6AD2B21A70FB685B6A5A1CFB685A628E
:1042A000FB681B8D013B9AB2FB681A85FB685B8D2E
:1042B0009BB2013B9AB2FB685A8517E1FB681B8DE4
:1042C000022B4ED17B6A00933B6B00220649F868B3
:1042D00000F076FA0346002B08D001231AE100BF54
:1042E000020010000000FFFF04000100FB681B68D3
:1042F0001A68FB681B6842F400721A60FB681B684E
:104300001A69FB685B6AD2B21A70FB685B6A5A1C56
:10431000FB685A62FB681B8D013B9AB2FB681A85E9
:10432000FB685B8D9BB2013B9AB2FB685A85FB68C8
:104330001B681A69FB685B6AD2B21A70FB685B6A19
:104340005A1CFB685A62FB681B8D013B9AB2FB68E2
:104350001A85FB685B8D9BB2013B9AB2FB685A855C
:10436000C4E07B6A00933B6B00226C49F86800F064
:1043700027FA0346002B01D00123CBE0FB681B6822
:104380001A68FB681B6822F480621A60FB681B686D
:104390001A69FB685B6AD2B21A70FB685B6A5A1CC6
:1043A000FB685A62FB681B8D013B9AB2FB681A8559
:1043B000FB685B8D9BB2013B9AB2FB685A857B6AB6
:1043C00000933B6B00225549F86800F0F9F9034669
:1043D000002B01D001239DE0FB681B681A68FB6875
:1043E0001B6842F400721A60FB681B681A69FB685C
:1043F0005B6AD2B21A70FB685B6A5A1CFB685A622D
:10440000FB681B8D013B9AB2FB681A85FB685B8DCC
:104410009BB2013B9AB2FB685A85FB681B681A691C
:10442000FB685B6AD2B21A70FB685B6A5A1CFB6855
:104430005A62FB681B8D013B9AB2FB681A85FB68C8
:104440005B8D9BB2013B9AB2FB685A854EE07A6A5B
:10445000396BF86800F05EFB0346002B01D00123A6
:1044600058E0FB681B681A69FB685B6AD2B21A7075
:10447000FB685B6A5A1CFB685A62FB681B8D013B38
:104480009AB2FB681A85FB685B8D9BB2013B9AB2BE
:10449000FB685A85FB681B685B6903F00403042B07
:1044A00024D1FB681B8D032B07D1FB681B681A689E
:1044B000FB681B6822F480621A60FB681B681A693B
:1044C000FB685B6AD2B21A70FB685B6A5A1CFB68B5
:1044D0005A62FB681B8D013B9AB2FB681A85FB6828
:1044E0005B8D9BB2013B9AB2FB685A85FB681B8DC2
:1044F000002B7FF4B6AEFB68202283F83D20FB68DA
:10450000002283F83E20FB68002283F83C20002331
:1045100000E0022318462837BD4680BD0400010094
:1045200080B588B002AFF8607A603B600B467B8153
:10453000FB68DB6A7B617B69082B06D07B69012BFA
:1045400003D07B6913F5803F08D1FB681B681A68AC
:10455000FB681B6842F480721A600BE0FB681B6BFF
:10456000122B07D1FB681B681A68FB681B6842F4B2
:1045700080721A603B6800937B6800224FF0011143
:10458000F86800F01DF90346002B0DD0FB681B688E
:104590001B6803F48073B3F5807F03D1FB684FF48D
:1045A00000721A64032335E0FB681B69B3F5804F82
:1045B00008D17B89DBB21A46FB681B6802F0FE0259
:1045C0001A611BE07B89DB11DBB203F00603DBB26F
:1045D00063F00F03DAB2FB681B681A613B687A6804
:1045E0000E49F86800F066F90346002B01D001235C
:1045F00010E07B89DAB2FB681B681A613B687A6855
:104600000749F86800F056F90346002B01D0012352
:1046100000E0002318461837BD4680BD08000100A1
:104620000200010080B588B002AFF8607A603B609C
:104630000B467B81FB68DB6A7B61FB681B681A6841
:10464000FB681B6842F480621A607B69082B06D005
:104650007B69012B03D07B6913F5803F08D1FB6890
:104660001B681A68FB681B6842F480721A600BE0D2
:10467000FB681B6B112B07D1FB681B681A68FB6872
:104680001B6842F480721A603B6800937B680022CA
:104690004FF00111F86800F093F80346002B0DD09D
:1046A000FB681B681B6803F48073B3F5807F03D13C
:1046B000FB684FF400721A64032379E0FB681B69FE
:1046C000B3F5804F08D17B89DBB243F00103DAB246
:1046D000FB681B681A615FE07B89DB11DBB203F0CA
:1046E0000603DBB263F00F03DAB2FB681B681A61E2
:1046F0003B687A683049F86800F0DCF80346002B24
:1047000001D0012354E07B89DAB2FB681B681A618F
:104710003B687A682949F86800F0CCF80346002B1A
:1047200001D0012344E000233B61FB681B685B6907
:104730003B61FB681B689B693B613B69FB681B68CD
:104740001A68FB681B6842F480721A603B68009329
:104750007B6800224FF00111F86800F031F8034641
:10476000002B0DD0FB681B681B6803F48073B3F546
:10477000807F03D1FB684FF400721A64032317E0B3
:104780007B89DB11DBB203F00603DBB263F00E03BF
:10479000DAB2FB681B681A613B687A680749F868F7
:1047A00000F088F80346002B01D0012300E000232D
:1047B00018461837BD4680BD080001000200010000
:1047C00080B584B000AFF860B9603B601346FB7100
:1047D00048E03B68B3F1FF3F44D0FEF789FE024654
:1047E000BB69D31A3A689A4202D33B68002B39D18D
:1047F000BB681B0CDBB2012B0DD1FB681B685B692E
:10480000DA43BB6813409BB2002B0CBF012300238B
:10481000DBB21A460CE0FB681B689B69DA43BB6895
:1048200013409BB2002B0CBF01230023DBB21A46BE
:10483000FB799A4216D1FB6800221A63FB6820229A
:1048400083F83D20FB68002283F83E20FB681B6C48
:1048500043F02002FB681A64FB68002283F83C20C6
:10486000012323E0BB681B0CDBB2012B0DD1FB68DD
:104870001B685B69DA43BB6813409BB2002B0CBF1B
:1048800001230023DBB21A460CE0FB681B689B691E
:10489000DA43BB6813409BB2002B0CBF01230023FB
:1048A000DBB21A46FB799A4293D0002318461037A0
:1048B000BD4680BD80B584B000AFF860B9607A6055
:1048C0003B6071E0FB681B685B6903F48063B3F5D0
:1048D000806F23D1FB681B681A68FB681B6842F471
:1048E00000721A60FB681B686FF480625A61FB6893
:1048F00000221A63FB68202283F83D20FB68002217
:1049000083F83E20FB681B6C43F00402FB681A64CA
:10491000FB68002283F83C20012367E07B68B3F149
:10492000FF3F41D0FEF7E4FD02463B68D31A7A68A8
:104930009A4202D37B68002B36D1BB681B0CDBB2DA
:10494000012B0CD1FB681B685B69DA43BB68134021
:104950009BB2002B14BF01230023DBB20BE0FB68EA
:104960001B689B69DA43BB6813409BB2002B14BFE2
:1049700001230023DBB2002B16D0FB6800221A6350
:10498000FB68202283F83D20FB68002283F83E204C
:10499000FB681B6C43F02002FB681A64FB68002272
:1049A00083F83C20012321E0BB681B0CDBB2012B08
:1049B0000CD1FB681B685B69DA43BB6813409BB290
:1049C000002B14BF01230023DBB20BE0FB681B6844
:1049D0009B69DA43BB6813409BB2002B14BF0123D1
:1049E0000023DBB2002B7FF46DAF00231846103795
:1049F000BD4680BD80B584B000AFF860B9607A6014
:104A000034E0F86800F0E3F80346002B01D00123FE
:104A100034E0BB68B3F1FF3F28D0FEF769FD0246E2
:104A20007B68D31ABA689A4202D3BB68002B1DD1A7
:104A3000FB681B685B6903F08003802B16D0FB6862
:104A400000221A63FB68202283F83D20FB680022C5
:104A500083F83E20FB681B6C43F02002FB681A645D
:104A6000FB68002283F83C20012307E0FB681B68F9
:104A70005B6903F08003802BC3D1002318461037F5
:104A8000BD4680BD80B584B000AFF860B9607A6083
:104A900034E0F86800F09BF80346002B01D00123B6
:104AA00034E0BB68B3F1FF3F28D0FEF721FD02469A
:104AB0007B68D31ABA689A4202D3BB68002B1DD117
:104AC000FB681B685B6903F00403042B16D0FB68CA
:104AD00000221A63FB68202283F83D20FB68002235
:104AE00083F83E20FB681B6C43F02002FB681A64CD
:104AF000FB68002283F83C20012307E0FB681B6869
:104B00005B6903F00403042BC3D10023184610375C
:104B1000BD4680BD80B584B000AFF860B9607A60F2
:104B200049E0FB681B685B6903F01003102B19D187
:104B3000FB681B686FF010025A61FB6800221A6361
:104B4000FB68202283F83D20FB68002283F83E208A
:104B5000FB681A6CFB681A64FB68002283F83C202F
:104B6000012330E0FEF7C4FC02467B68D31ABA6822
:104B70009A4202D3BB68002B1DD1FB681B685B699E
:104B800003F04003402B16D0FB6800221A63FB6839
:104B9000202283F83D20FB68002283F83E20FB683A
:104BA0001B6C43F02002FB681A64FB68002283F848
:104BB0003C20012307E0FB681B685B6903F04003AE
:104BC000402BAED1002318461037BD4680BD80B4BF
:104BD00083B000AF78607B681B685B6903F4806317
:104BE000B3F5806F1BD17B681B686FF480625A61DC
:104BF0007B6800221A637B68202283F83D207B6853
:104C0000002283F83E207B681B6C43F004027B6823
:104C10001A647B68002283F83C20012300E0002313
:104C200018460C37BD465DF8047B704780B483B0EE
:104C300000AF064B01221A60054B1B687B607B6846
:104C400000BF0C37BD465DF8047B704720000E4264
:104C50000070004080B483B000AF064B00221A60A1
:104C6000054B1B687B607B6800BF0C37BD465DF859
:104C7000047B704720000E420070004080B586B073
:104C800000AF78607B68002B01D1012367E27B686D
:104C90001B6803F00103002B75D0884B9B6803F061
:104CA0000C03042B0CD0854B9B6803F00C03082BE2
:104CB00012D1824B5B6803F48003B3F5800F0BD1F4
:104CC0007E4B1B6803F40033002B5BD07B685B6872
:104CD000002B57D1012342E27B685B68B3F5803F2C
:104CE00006D1764B1B68754A43F4803313601DE090
:104CF0007B685B68B3F5A02F0CD1704B1B686F4AC3
:104D000043F4802313606D4B1B686C4A43F480337B
:104D100013600BE0694B1B68684A23F4803313600F
:104D2000664B1B68654A23F4802313607B685B68CD
:104D3000002B13D0FEF7DCFB386108E0FEF7D8FB50
:104D400002463B69D31A642B01D9032307E25B4B6C
:104D50001B6803F40033002BF0D014E0FEF7C8FB0F
:104D6000386108E0FEF7C4FB02463B69D31A642BA6
:104D700001D90323F3E1514B1B6803F40033002BEB
:104D8000F0D100E000BF7B681B6803F00203002B3A
:104D900063D04A4B9B6803F00C03002B0BD0474BAE
:104DA0009B6803F00C03082B1CD1444B5B6803F495
:104DB0008003002B16D1414B1B6803F00203002B2C
:104DC00005D07B68DB68012B01D00123C7E13B4B99
:104DD0001B6823F0F8027B681B69DB00374913432B
:104DE0000B603AE07B68DB68002B20D0344B01225B
:104DF0001A60FEF77DFB386108E0FEF779FB02469A
:104E00003B69D31A022B01D90323A8E12B4B1B6862
:104E100003F00203002BF0D0284B1B6823F0F802AC
:104E20007B681B69DB00254913430B6015E0244BAD
:104E300000221A60FEF75CFB386108E0FEF758FBC1
:104E400002463B69D31A022B01D9032387E11B4B8E
:104E50001B6803F00203002BF0D17B681B6803F092
:104E60000803002B36D07B685B69002B16D0154BEE
:104E700001221A60FEF73CFB386108E0FEF738FBC0
:104E800002463B69D31A022B01D9032367E10B4B7E
:104E90005B6F03F00203002BF0D01BE0094B0022F4
:104EA0001A60FEF725FB38610EE0FEF721FB024693
:104EB0003B69D31A022B07D9032350E10038024083
:104EC00000004742800E4742884B5B6F03F00203AD
:104ED000002BEAD17B681B6803F00403002B00F071
:104EE00097800023FB75814B1B6C03F08053002BD4
:104EF0000FD10023BB607D4B1B6C7C4A43F0805379
:104F000013647A4B1B6C03F08053BB60BB680123B6
:104F1000FB75774B1B6803F48073002B18D1744B1F
:104F20001B68734A43F480731360FEF7E1FA38613B
:104F300008E0FEF7DDFA02463B69D31A022B01D9DD
:104F400003230CE16A4B1B6803F48073002BF0D041
:104F50007B689B68012B06D1644B1B6F634A43F04F
:104F6000010313671CE07B689B68052B0CD15F4B2A
:104F70001B6F5E4A43F0040313675C4B1B6F5B4A75
:104F800043F0010313670BE0584B1B6F574A23F0A4
:104F900001031367554B1B6F544A23F00403136737
:104FA0007B689B68002B15D0FEF7A2FA38610AE0F7
:104FB000FEF79EFA02463B69D31A41F288329342C9
:104FC00001D90323CBE0494B1B6F03F00203002BF5
:104FD000EED014E0FEF78CFA38610AE0FEF788FAAA
:104FE00002463B69D31A41F28832934201D9032326
:104FF000B5E03E4B1B6F03F00203002BEED1FB7DAF
:10500000012B05D1394B1B6C384A23F080531364B4
:105010007B689B69002B00F0A180344B9B6803F0F8
:105020000C03082B5CD07B689B69022B41D1314B70
:1050300000221A60FEF75CFA386108E0FEF758FAC1
:1050400002463B69D31A022B01D9032387E0274B81
:105050001B6803F00073002BF0D17B68DA697B6872
:105060001B6A1A437B685B6A9B011A437B689B6AD5
:105070005B08013B1B041A437B68DB6A1B061B4968
:1050800013434B601B4B01221A60FEF731FA386163
:1050900008E0FEF72DFA02463B69D31A022B01D92C
:1050A00003235CE0114B1B6803F00073002BF0D06E
:1050B00054E0104B00221A60FEF71AFA386108E03B
:1050C000FEF716FA02463B69D31A022B01D90323D5
:1050D00045E0064B1B6803F00073002BF0D13DE068
:1050E0007B689B69012B07D1012338E0003802401F
:1050F00000700040600047421B4B5B68FB607B68B0
:105100009B69012B28D0FB6803F480027B68DB6974
:105110009A4221D1FB6803F03F027B681B6A9A42E6
:105120001AD1FA6847F6C07313407A68526A92013E
:10513000934211D1FB6803F440327B689B6A5B08A1
:10514000013B1B049A4207D1FB6803F070627B6845
:10515000DB6A1B069A4201D0012300E000231846B7
:105160001837BD4680BD00BF0038024080B584B00E
:1051700000AF786039607B68002B01D10123CCE05F
:10518000684B1B6803F007033A689A420CD9654BD9
:105190003A68D2B21A70634B1B6803F007033A688F
:1051A0009A4201D00123B8E07B681B6803F0020338
:1051B000002B20D07B681B6803F00403002B05D074
:1051C000594B9B68584A43F4E05393607B681B68D3
:1051D00003F00803002B05D0534B9B68524A43F45D
:1051E00060439360504B9B6823F0F0027B689B68A0
:1051F0004D4913438B607B681B6803F00103002B50
:1052000044D07B685B68012B07D1474B1B6803F4D4
:105210000033002B19D101237FE07B685B68022BF0
:1052200003D07B685B68032B07D13F4B1B6803F0FF
:105230000073002B09D101236FE03B4B1B6803F087
:105240000203002B01D1012367E0374B9B6823F059
:1052500003027B685B68344913438B60FEF748F9AF
:10526000F8600AE0FEF744F90246FB68D31A41F2FF
:105270008832934201D903234FE02B4B9B6803F004
:105280000C027B685B689B009A42EBD1254B1B6844
:1052900003F007033A689A420CD2224B3A68D2B222
:1052A0001A70204B1B6803F007033A689A4201D03A
:1052B000012332E07B681B6803F00403002B08D055
:1052C000194B9B6823F4E0527B68DB681649134353
:1052D0008B607B681B6803F00803002B09D0124B1E
:1052E0009B6823F460427B681B69DB000E49134313
:1052F0008B6000F021F802460B4B9B681B0903F002
:105300000F030A49CB5C22FA03F3094A1360094BE5
:105310001B681846FEF7A8F8002318461037BD464C
:1053200080BD00BF003C024000380240C0BB000806
:1053300014000020180000202DE9B04F90B000AFFD
:1053400000237B630023FB6300233B630023BB63D9
:10535000594B9B6803F00C03082B0DD0082B00F26F
:10536000A180002B02D0042B03D09BE0534BBB63E6
:105370009BE0534BBB6398E04F4B5B6803F03F03EC
:105380007B634D4B5B6803F48003002B28D04A4BB2
:105390005B689B0900223B627A623B6AC3F30800A8
:1053A0000021474B03FB01F2002300FB03F31344EE
:1053B000434AA0FB0212FA620A46BA62FA6A13442E
:1053C000FB627B6B0022BB61FA61D7E90623D7E958
:1053D0000A01FBF7EBFB02460B461346FB6353E067
:1053E000354B5B689B0900223B617A613B69C3F3E3
:1053F000080A4FF0000B52465B464FF000004FF09A
:105400000001590141EAD261500102460B46B2EB5C
:105410000A0863EB0B094FF000024FF000034FEA5C
:10542000891343EA98634FEA8812B2EB080463EBEE
:1054300009054FF000024FF00003EB0043EA5473FC
:10544000E20014461D4614EB0A033B6045EB0B03D8
:105450007B604FF000024FF00003D7E9004529467A
:105460008B02214643EA915321468A02104619468F
:105470007B6B0022BB60FA60D7E90223FBF796FB47
:1054800002460B461346FB630B4B5B681B0C03F099
:10549000030301335B003B63FA6B3B6BB2FBF3F33B
:1054A000BB6302E0054BBB6300BFBB6B18464037D4
:1054B000BD46BDE8B08F00BF003802400024F400B4
:1054C00040787D0180B400AF034B1B681846BD4691
:1054D0005DF8047B704700BF1400002080B500AF6A
:1054E000FFF7F0FF0246054B9B689B0A03F007039A
:1054F0000349CB5C22FA03F3184680BD0038024012
:10550000D0BB000880B500AFFFF7DCFF0246054BBB
:105510009B685B0B03F007030349CB5C22FA03F3A0
:10552000184680BD00380240D0BB000880B582B06C
:1055300000AF78607B68002B01D1012341E07B68DC
:1055400093F83D30DBB2002B06D17B68002283F854
:105550003C207868FDF7EAFC7B68022283F83D2056
:105560007B681A687B6804331946104600F042FFD6
:105570007B68012283F846207B68012283F83E2065
:105580007B68012283F83F207B68012283F840205A
:105590007B68012283F841207B68012283F8422046
:1055A0007B68012283F843207B68012283F8442032
:1055B0007B68012283F845207B68012283F83D2027
:1055C000002318460837BD4680BD80B582B000AFC5
:1055D00078607B68002B01D1012341E07B6893F860
:1055E0003D30DBB2002B06D17B68002283F83C20E3
:1055F000786800F039F87B68022283F83D207B68E8
:105600001A687B6804331946104600F0F3FE7B6885
:10561000012283F846207B68012283F83E207B68C4
:10562000012283F83F207B68012283F840207B68B9
:10563000012283F841207B68012283F842207B68A5
:10564000012283F843207B68012283F844207B6891
:10565000012283F845207B68012283F83D20002346
:1056600018460837BD4680BD80B483B000AF78606F
:1056700000BF0C37BD465DF8047B704780B584B031
:1056800000AF786039603B68002B09D17B6893F8E4
:105690003E30DBB2012B14BF01230023DBB222E03A
:1056A0003B68042B09D17B6893F83F30DBB2012BB8
:1056B00014BF01230023DBB215E03B68082B09D19E
:1056C0007B6893F84030DBB2012B14BF0123002329
:1056D000DBB208E07B6893F84130DBB2012B14BFEA
:1056E00001230023DBB2002B01D001237CE03B68C7
:1056F000002B04D17B68022283F83E2013E03B6834
:10570000042B04D17B68022283F83F200BE03B6826
:10571000082B04D17B68022283F8402003E07B68D9
:10572000022283F841207B681B68012239681846F1
:1057300001F080FA7B681B682D4A934204D07B6895
:105740001B682C4A934201D1012300E00023002B67
:1057500007D07B681B685A6C7B681B6842F4004268
:105760005A647B681B68224A934222D07B681B687C
:10577000B3F1804F1DD07B681B681F4A934218D03D
:105780007B681B681D4A934213D07B681B681C4AC8
:1057900093420ED07B681B68164A934209D07B68FF
:1057A0001B68184A934204D07B681B68164A9342D0
:1057B00011D17B681B689B6803F00703FB60FB68E3
:1057C000062B10D07B681B681A687B681B6842F048
:1057D00001021A6007E07B681B681A687B681B6817
:1057E00042F001021A60002318461037BD4680BD02
:1057F0000000014000040140000400400008004097
:10580000000C0040004001400018004080B582B00C
:1058100000AF78607B68002B01D1012341E07B68F9
:1058200093F83D30DBB2002B06D17B68002283F871
:105830003C207868FDF772FC7B68022283F83D20EB
:105840007B681A687B6804331946104600F0D2FD65
:105850007B68012283F846207B68012283F83E2082
:105860007B68012283F83F207B68012283F8402077
:105870007B68012283F841207B68012283F8422063
:105880007B68012283F843207B68012283F844204F
:105890007B68012283F845207B68012283F83D2044
:1058A000002318460837BD4680BD000080B584B08F
:1058B00000AF786039600023FB733B68002B04D194
:1058C0007B6893F83E30DBB213E03B68042B04D1D5
:1058D0007B6893F83F30DBB20BE03B68082B04D1C8
:1058E0007B6893F84030DBB203E07B6893F841308B
:1058F000DBB2BB733B68002B04D17B6893F842306A
:10590000DBB213E03B68042B04D17B6893F843308F
:10591000DBB20BE03B68082B04D17B6893F8443082
:10592000DBB203E07B6893F84530DBB27B73BB7B73
:10593000012B02D17B7B012B01D00123CCE03B6802
:10594000002B04D17B68022283F83E2013E03B68E1
:10595000042B04D17B68022283F83F200BE03B68D4
:10596000082B04D17B68022283F8402003E07B6887
:10597000022283F841203B68002B04D17B6802227D
:1059800083F8422013E03B68042B04D17B68022299
:1059900083F843200BE03B68082B04D17B6802228C
:1059A00083F8442003E07B68022283F845203B68AB
:1059B0000C2B41D801A252F823F000BFF159000886
:1059C000395A0008395A0008395A0008035A0008A1
:1059D000395A0008395A0008395A0008155A00087F
:1059E000395A0008395A0008395A0008275A00085D
:1059F0007B681B68DA687B681B6842F00202DA6029
:105A00001DE07B681B68DA687B681B6842F0040253
:105A1000DA6014E07B681B68DA687B681B6842F018
:105A20000802DA600BE07B681B68DA687B681B6839
:105A300042F01002DA6002E00123FB7300BFFB7B3F
:105A4000002B48D17B681B6801223968184601F099
:105A5000F1F87B681B68224A934222D07B681B685E
:105A6000B3F1804F1DD07B681B681E4A934218D04B
:105A70007B681B681C4A934213D07B681B681B4AD7
:105A800093420ED07B681B68194A934209D07B6809
:105A90001B68184A934204D07B681B68164A9342DD
:105AA00011D17B681B689B6803F00703BB60BB6870
:105AB000062B10D07B681B681A687B681B6842F055
:105AC00001021A6007E07B681B681A687B681B6824
:105AD00042F001021A60FB7B18461037BD4680BDBC
